:1000000012C02CC02BC02AC029C028C027C026C0BF
:1000100025C024C023C022C021C020C01FC01EC0D4
:100020001DC01CC01BC011241FBECFE5D4E0DEBF25
:10003000CDBF10E0A0E6B0E0ECECF3E002C005902C
:100040000D92A036B107D9F710E0A0E6B0E001C0EC
:100050001D92A036B107E1F716D0B6C1D1CF80E42A
:1000600087B93D9887E886B9089597B18770982B2E
:1000700097B9369A3699FECF24B135B1932F80E0E7
:10008000820F911D0895CF93DF9300D0CDB7DEB7D7
:10009000E6DF8A9A929810E0EE24FF240F2EFAE011
:1000A0007F2EF02DAA24BB240F2EFAE08F2E992448
:1000B000F02D05E005C080E0D8DFE80EF91E1F5FD7
:1000C0001A30C8F3172D650181E0CFDFC80ED91EA5
:1000D0001150D1F7C701B40163D1CB01880F991F2B
:1000E000880F991FB4015CD1262F2151C601B4019C
:1000F00057D1CB01880F991F880F991FB40150D198
:100100006151261710F4929A01C0929829836A834C
:10011000172DCE01019662E013D10EBD1DBC1CBC93
:100120008CB59DB5843B9105D8F3115091F70EBD68
:100130001DBC1CBC8CB59DB52CE180329207D0F360
:1001400010E07501BDCF82E080BD8FEF89B988E0F6
:100150008AB986E880BD08955398899A9198089540
:100160005F9BFECF8CB1089582E080BD8FEF89B98F
:1001700088E18AB986E880BD0895CF93DF930F9216
:10018000CDB7DEB7198294E02981220F220F29838F
:1001900029812F5F382F3170230F29838695915045
:1001A00099F789810F90DF91CF910895CF93C82F50
:1001B00082958F70E2DF5D9BFECF8CB98C2F8F70A4
:1001C000DCDF5D9BFECF8CB9CF910895282F30E006
:1001D000A901407C507081E04038510509F080E071
:1001E000A901407350704032510509F48260A901A1
:1001F0004C7050704830510509F4846023703070A1
:100200002230310509F4886008958295807F860F39
:100210000895CF93A5DFDADFC82FA2DFD7DF682FDD
:100220008C2FF3DFCF91089590E09C01207C3070FB
:10023000203C3105F1F0AC01407350704033510562
:10024000D1F0BC016C7070706C307105B1F08370CE
:1002500090708330910599F02115310591F0411589
:10026000510589F06115710581F0009781F489E0ED
:10027000089582E0089583E0089584E0089585E07C
:10028000089586E0089587E0089588E0089580E065
:100290000895EF92FF920F931F93CF93DF93182F40
:1002A000092F5EDFC82FC0DFF82E8C2F8FDFFF20D5
:1002B00039F58F3041F554DFC82FB6DFF82E8C2F7B
:1002C00085DFFF2019F58F3021F56FE09EDFC82F05
:1002D000A0DF813009F59DDFE82ECF5FFC2EF80E00
:1002E000C12FD02F03C095DF8993F80E8C2F811B6F
:1002F0008E15C8F38EDF8F1591F48E2D90E011C00E
:1003000081E090E80EC081E090E80BC081E090E8C9
:1003100008C081E090E805C082E090E802C083E078
:1003200090E8DF91CF911F910F91FF90EF9008958A
:1003300088E090EF5D9BFECF9CB98150D9F708957E
:10034000FF920F931F93CF93DF938C01F62EFBDE6A
:10035000EFDF8FEF2BDF81E029DF8F2D27DFFF20FD
:1003600071F0E80121968F2D8150C80FD11DF80141
:1003700081918F01F80E1ADF0C171D07C1F78F2D21
:1003800015DF5D9BFECF8AE08CB95D9BFECF8DE0D3
:100390008CB9E2DEDF91CF911F910F91FF9008950C
:1003A000AA1BBB1B51E107C0AA1FBB1FA617B7079B
:1003B00010F0A61BB70B881F991F5A95A9F78095B7
:0C03C0009095BC01CD010895F894FFCF8A
:00000001FF
