:1000000012C02CC02BC02AC029C028C027C026C0BF
:1000100025C024C023C022C021C020C01FC01EC0D4
:100020001DC01CC01BC011241FBECFE5D4E0DEBF25
:10003000CDBF10E0A0E6B0E0E2ECFBE002C005902E
:100040000D92A43AB107D9F710E0A4EAB0E001C0DC
:100050001D92A43AB107E1F72ED1B1C5D1CF95B326
:1000600082958F70907F982B95BB089595B38F7074
:10007000907F982B95BB0895AC9A83E08EBD1DBCF4
:100080001CBC8CB59DB58B309105D8F3AC9883E042
:100090008EBD1DBC1CBC8CB59DB58B309105D8F3B5
:1000A0000895CF93C82FAD98DADFE6DF83E08EBDE9
:1000B0001DBC1CBC2CB53DB52B303105D8F38C2FA5
:1000C000D5DFDADF83E08EBD1DBC1CBC8CB59DB5D1
:1000D0008B309105D8F3CF910895662319F4805899
:1000E000E0DF0EC0613019F48054DBDF09C06230FC
:1000F00019F48C56D6DF04C0633011F48C52D1DF72
:1001000083E08EBD1DBC1CBC8CB59DB522E0803447
:100110009207D0F30895CF93C82F83E08EBD1DBC06
:100120001CBC8CB59DB58B309105D8F3AD9A8C2F46
:1001300096DFA2DF83E08EBD1DBC1CBC8CB59DB5D7
:100140008B309105D8F38C2F91DF96DFCF910895F6
:10015000CF93DF93EC018881882329F02196DBDFA0
:1001600089918823E1F7DF91CF9108958FEF84BBC8
:1001700015BA83E08EBD1DBC1CBC8CB59DB52AE5AF
:1001800080309207D0F3AD9880E269DF75DF83E0BD
:100190008EBD1DBC1CBC8CB59DB58B309105D8F3B4
:1001A00088E27FDF83E08EBD1DBC1CBC8CB59DB595
:1001B00022E080349207D0F386E073DF83E08EBDC7
:1001C0001DBC1CBC8CB59DB58B309105D8F38CE063
:1001D00068DF83E08EBD1DBC1CBC8CB59DB58B302B
:1001E0009105D8F381E05DDF83E08EBD1DBC1CBCB2
:1001F0008CB59DB58B309105D8F30895CF93DF93DF
:1002000080E060E06ADFC8E6D0E080E284DF21972A
:10021000E1F7DF91CF910895CF93C82F882321F480
:1002200080E060E05ADF0CC0813021F480E061E0C2
:1002300054DF0BC0823021F480E062E04EDF05C065
:10024000C33019F480E063E048DF80E690E080DFAF
:10025000CF9108955D9BFECF8CB90895CF93C82FA1
:1002600082958F708A3010F4805D01C0895CF2DF66
:100270008C2F90E08F7090708A30910524F4CF70AD
:100280008C2F805D03C0CF708C2F895CE3DFCF9112
:100290000895CF93DF93EC018881882329F021967C
:1002A000D9DF89918823E1F78DE0D4DF8AE0D2DFBE
:1002B000DF91CF910895CF93DF93CDB7DEB7A897A5
:1002C0000FB6F894DEBF0FBECDBFA0D04FDF80E0E9
:1002D00060E003DFDD248E01055F1F4F0F2EF6E780
:1002E0008F2EF0E09F2EF02D0F2EF0E86F2EF0E015
:1002F0007F2EF02D0F2EFFEDAF2EBB24F02D0F2EF5
:10030000F4E94F2EF0E05F2EF02DCE01019613D1CF
:100310009923DCF3D39480E060E0DFDE00D000D0EE
:1003200000D0EDB7FEB73196ADB7BEB712961C93AD
:100330000E93119793828282D48215827BD18DB7DE
:100340009EB706960FB6F8949EBF0FBE8DBFC8012C
:10035000FFDEF980EA8080E061E0BFDEADB7BEB7C6
:100360001C970FB6F894BEBF0FBEADBFEDB7FEB77A
:10037000319612961C930E93119773826282F482C7
:100380001582B782A682E0861186B386A28652D1F4
:100390008DB79EB70C960FB6F8949EBF0FBE8DBF5B
:1003A000C801D6DEADB7BEB718970FB6F894BEBF7A
:1003B0000FBEADBFEDB7FEB7319612961C930E93EC
:1003C000119753824282F4821582E682178232D1DB
:1003D0008DB79EB708960FB6F8949EBF0FBE8DBF1F
:1003E000C8016FE070E055DF90CF81E080BD8FE7FE
:1003F00089B988E08AB986E880BD08955398899ABA
:10040000919808955F9BFECF8CB1089581E080BDE7
:100410008FE789B988E18AB986E880BD0895CF93CE
:10042000DF930F92CDB7DEB7198294E02981220FB6
:10043000220F298329812F5F382F3170230F2983C1
:100440008695915099F789810F90DF91CF9108950A
:10045000CF93C82F82958F70E2DF5D9BFECF8CB962
:100460008C2F8F70DCDF5D9BFECF8CB9CF91089510
:10047000282F30E0A901407C507081E040385105C0
:1004800009F080E0A901407350704032510509F431
:100490008260A9014C7050704830510509F48460A5
:1004A000237030702230310509F4886008958295F8
:1004B000807F860F0895CF93A5DFDADFC82FA2DFF4
:1004C000D7DF682F8C2FF3DFCF91089590E09C0148
:1004D000207C3070203C3105F1F0AC01407350704D
:1004E00040335105D1F0BC016C7070706C307105F7
:1004F000B1F0837090708330910599F0211531052A
:1005000091F04115510589F06115710581F0009751
:1005100081F489E0089582E0089583E0089584E0FD
:10052000089585E0089586E0089587E0089588E0BD
:10053000089580E00895EF92FF920F931F93CF9359
:10054000DF93182F092F5EDFC82FC0DFF82E8C2F06
:100550008FDFFF2039F58F3041F554DFC82FB6DF2C
:10056000F82E8C2F85DFFF2019F58F3021F56FE0F5
:100570009EDFC82FA0DF813009F59DDFE82ECF5F19
:10058000FC2EF80EC12FD02F03C095DF8993F80EF3
:100590008C2F811B8E15C8F38EDF8F1591F48E2D55
:1005A00090E011C081E090E80EC081E090E80BC0BF
:1005B00081E090E808C081E090E805C082E090E822
:1005C00002C083E090E8DF91CF911F910F91FF90DF
:1005D000EF90089580E190EF5D9BFECF9CB9815034
:1005E000D9F70895FF920F931F93CF93DF938C0158
:1005F000F62EFBDEEFDF8FEF2BDF81E029DF8F2D83
:1006000027DFFF2071F0E80121968F2D8150C80F60
:10061000D11DF80181918F01F80E1ADF0C171D070B
:10062000C1F78F2D15DFEADEDF91CF911F910F917A
:10063000FF900895AEE0B0E0EFE1F3E097C20D89DE
:100640001E8986E08C831A8309838FEF9FE79E8340
:100650008D83AE01475E5F4FCE0101966F89788D25
:1006600008D0EF81F885E00FF11F10822E96E4E0AC
:1006700099C2ADE0B0E0EEE3F3E06AC23C017D87F1
:100680006C875A01FC0117821682838181FFBBC1EE
:100690002E010894411C511CF3019381EC85FD85CA
:1006A00093FD859193FF8191FD87EC87882309F461
:1006B000A6C1853241F493FD859193FF8191FD8719
:1006C000EC87853221F490E0B301B8D1E5CFFF2467
:1006D000EE2410E01032B0F48B3269F08C3228F442
:1006E000803251F0833271F40BC08D3239F0803397
:1006F00049F411602CC01260146029C0186027C032
:10070000106125C017FD2EC0282F20532A3098F4E1
:1007100016FF08C08F2D880FF82EFF0CFF0CF80E67
:10072000F20E15C08E2D880FE82EEE0CEE0CE80EA2
:10073000E20E10620CC08E3221F416FD60C110640E
:1007400006C08C3611F4106802C0883659F4EC8566
:10075000FD8593FD859193FF8191FD87EC8788232B
:1007600009F0B8CF982F9554933018F090529330E9
:1007700038F424E030E0A20EB31E3FE339830FC00B
:10078000833631F0833781F0833509F056C021C0BC
:10079000F5018081898322E030E0A20EB31E21E0C2
:1007A000C22ED12C420113C092E0292E312C2A0CEA
:1007B0003B1CF5018080918016FF03C06F2D70E017
:1007C00002C06FEF7FEFC4012ED16C0151011F7782
:1007D00014C082E0282E312C2A0C3B1CF5018080AD
:1007E000918016FF03C06F2D70E002C06FEF7FEFA6
:1007F000C4010ED16C011068510113FD1AC005C06F
:1008000080E290E0B3011AD1EA948E2D90E0C816F0
:10081000D906B0F30EC0F40117FD859117FF819141
:100820004F0190E0B3010AD1E110EA940894C108A5
:10083000D108C114D10479F7DFC0843611F08936AC
:1008400049F5F50117FF07C080819181A281B3812D
:1008500024E030E008C080819181AA2797FDA0950F
:10086000BA2F22E030E0A20EB31E012F0F76B7FFA1
:1008700008C0B095A095909581959F4FAF4FBF4F01
:100880000068BC01CD01A2012AE030E003D1D82EDE
:10089000D4183EC0853721F41F7E2AE030E020C006
:1008A000197F8F36A9F0803720F4883509F0A7C06A
:1008B0000BC0803721F0883709F0A1C001C010615A
:1008C00014FF09C0146007C014FF08C0166006C0FA
:1008D00028E030E005C020E130E002C020E132E055
:1008E000F50117FF07C0608171818281938144E027
:1008F00050E006C06081718180E090E042E050E00D
:10090000A40EB51EA201C6D0D82ED418012F0F7781
:1009100006FF09C00E7FDF1430F404FF06C002FD9D
:1009200004C00F7E02C01D2D01C01F2D802F90E03E
:1009300004FF0CC0FE01ED0DF11D2081203311F4E8
:10094000097E09C002FF06C01E5F05C08678907050
:10095000009709F01F5F802E992403FD11C000FF4E
:100960000CC0FD2C1E1548F4FE0CF11A1E2D05C0FE
:1009700080E290E0B30162D01F5F1E15C8F304C08F
:100980001E1510F4E11A01C0EE2484FE0EC080E3AF
:1009900090E0B30153D082FE1DC081FE03C088E504
:1009A00090E010C088E790E00DC0C4018678907098
:1009B000009781F081FC02C080E201C08BE207FD5C
:1009C0008DE290E0B3013AD005C080E390E0B3013E
:1009D00035D0FA94DF14C8F3DA94F201ED0DF11D6D
:1009E000808190E0B3012AD0DD20B1F705C080E21C
:1009F00090E0B30123D0EA94EE20C9F74DCEF30185
:100A00008681978102C08FEF9FEF2D96E2E1BCC0F7
:100A1000FC010590615070400110D8F780959095C9
:100A20008E0F9F1F0895FC016150704001900110CE
:100A3000D8F7809590958E0F9F1F08950F931F9361
:100A4000CF93DF938C01EB018B8181FF1BC082FF71
:100A50000DC02E813F818C819D812817390764F458
:100A6000E881F9810193F983E88306C0E885F98577
:100A7000802F0995009731F48E819F8101969F8385
:100A80008E8302C00FEF1FEFC801DF91CF911F913E
:100A90000F910895FA01AA27283051F1203181F1F0
:100AA000E8946F936E7F6E5F7F4F8F4F9F4FAF4F76
:100AB000B1E03ED0B4E03CD0670F781F891F9A1F89
:100AC000A11D680F791F8A1F911DA11D6A0F711D3D
:100AD000811D911DA11D20D009F468943F912AE049
:100AE000269F11243019305D3193DEF6CF01089531
:100AF000462F4770405D4193B3E00FD0C9F7F6CF62
:100B0000462F4F70405D4A3318F0495D31FD405229
:100B1000419302D0A9F7EACFB4E0A69597958795BF
:100B200077956795BA95C9F700976105710508959E
:100B30009B01AC010A2E069457954795379527954A
:100B4000BA95C9F7620F731F841F951FA01D0895E2
:100B50002F923F924F925F926F927F928F929F92CD
:100B6000AF92BF92CF92DF92EF92FF920F931F93BB
:100B7000CF93DF93CDB7DEB7CA1BDB0B0FB6F8946C
:100B8000DEBF0FBECDBF09942A88398848885F84AC
:100B90006E847D848C849B84AA84B984C884DF801D
:100BA000EE80FD800C811B81AA81B981CE0FD11D01
:100BB0000FB6F894DEBF0FBECDBFED010895F894D7
:020BC000FFCF65
:100BC2002020202020202020202020202020202023
:100BD200202020200000636E743A20253033640008
:100BE20054303A2530642563432054313A25306429
:100BF2002563430054303A253033642054313A257A
:040C02003033640027
:00000001FF
